:020000040800F2
:100000000004002001010008090100080B0100089C
:100010000D0100080F010008110100080000000098
:1000200000000000000000000000000013010008B4
:100030001501000800000000170100081901000860
:100040001B0100081B0100081B0100081B01000820
:100050001B0100081B0100081B0100081B01000810
:100060001B0100081B0100081B0100081B01000800
:100070001B0100081B0100081B0100081B010008F0
:100080001B0100081B0100081B0100081B010008E0
:100090001B0100081B0100081B0100081B010008D0
:1000A0001B0100081B0100081B0100081B010008C0
:1000B0001B0100081B0100081B0100081B010008B0
:1000C0001B0100081B0100081B0100081B010008A0
:1000D0001B0100081B0100081B0100081B01000890
:1000E0001B0100081B0100081B010008DFF80CD0F1
:1000F00000F02AF800480047DD080008000400204E
:100100000648804706480047FEE7FEE7FEE7FEE7B1
:10011000FEE7FEE7FEE7FEE7FEE7FEE7A1070008D1
:10012000ED000008D2B201E000F8012B491EFBD21D
:1001300070470022F6E710B513460A4604461946F2
:10014000FFF7F0FF204610BD064C074D06E0E068C3
:1001500040F0010394E8070098471034AC42F6D30E
:10016000FFF7C8FF7C0F00088C0F00082DE9F04155
:10017000024600250026002000230024002791F8D5
:1001800003C00CF00F0591F803C00CF0100CBCF18B
:10019000000F03D091F802C04CEA050591F800C0A9
:1001A000BCF1000F31D0146800202BE04FF0010C9F
:1001B0000CFA00F3B1F800C00CEA03069E4220D10D
:1001C00083004FF00F0C0CFA03F7BC4305FA03FC55
:1001D0004CEA040491F803C0BCF1280F06D14FF09B
:1001E000010C0CFA00FCC2F814C00AE091F803C03C
:1001F000BCF1480F05D14FF0010C0CFA00FCC2F81D
:1002000010C0401C0828D1D31460B1F800C0BCF164
:10021000FF0F34DD546800202EE000F1080C4FF091
:10022000010808FA0CF3B1F800C00CEA03069E427C
:1002300021D183004FF00F0C0CFA03F7BC4305FAF1
:1002400003FC4CEA040491F803C0BCF1280F05D16B
:1002500000F1080C08FA0CF8C2F8148091F803C0F9
:10026000BCF1480F07D100F1080C4FF0010808FA63
:100270000CF8C2F81080401C0828CED35460BDE8AA
:10028000F0810246002093680B400BB1012000E092
:10029000002070470AB1016100E04161704770B50C
:1002A00000240EE00021204600F0EFF8002504E0D5
:1002B000002000F06FF9681CC5B2802DF8DB601CCF
:1002C000C4B2082CEEDB70BD08B50121082000F097
:1002D00071F914208DF8030003208DF802004FF40B
:1002E0008070ADF8000069460A48FFF73FFF4FF401
:1002F0000070ADF8000069460648FFF737FF01229D
:1003000011020448FFF7C6FF012251020148FFF71E
:10031000C1FF08BD000C014070B50546002415E082
:100320008020204100EA05024FF400710E48FFF7DB
:10033000B1FF012211020C48FFF7ACFF00224FF47D
:1003400080710948FFF7A6FF601CC4B2082CE7DBE8
:10035000012211020448FFF79DFF00224FF4807133
:100360000148FFF797FF70BD000C014010B5012256
:1003700051020A48FFF78EFF012211020748FFF7DA
:1003800089FF00224FF400710448FFF783FF002229
:100390004FF480710148FFF77DFF10BD000C014054
:1003A00010B500224FF400710648FFF773FF0122D9
:1003B00011020448FFF76EFF012251020148FFF7C6
:1003C00069FF10BD000C014070B5002406E0002557
:1003D00000E06D1CB5F57A7FFBD3641CB4F57A7F21
:1003E000F5D3FFF771FFAE2000F0C4F8D52000F080
:1003F000C1F8802000F0BEF8A82000F0BBF83F2034
:1004000000F0B8F8D32000F0B5F8002000F0B2F802
:10041000402000F0AFF8A12000F0ACF8C82000F0B8
:10042000A9F8DA2000F0A6F8122000F0A3F8812045
:1004300000F0A0F8CF2000F09DF8D92000F09AF845
:10044000F12000F097F8DB2000F094F8302000F065
:1004500091F8A42000F08EF8A62000F08BF88D20F3
:1004600000F088F8142000F085F8AF2000F082F842
:10047000FFF715FF70BD10B50246012000E05043A4
:100480000B1EA1F10101FAD110BD70B505460C4655
:1004900045F0B00000F06EF8102141EA141000F0B1
:1004A00069F804F00F0000F065F870BD2DE9F04127
:1004B00005460E461746721ED206110E6A1E5206D9
:1004C000100EFFF7E2FF002409E0A7F12001134A14
:1004D00002EB0111085D00F05DF8601CC4B2082C4D
:1004E000F3DB721ED206110E6A1E012303EB4202D9
:1004F000D0B2FFF7CAFF00240BE0A7F12001074AA2
:1005000002EB011204F10801505C00F043F8601C9A
:10051000C4B2082CF1DBBDE8F08100008A090008B4
:100520002DE9F04781460E4690461F4600241DE007
:10053000381B411E1020FFF79EFFB8FBF0F000F0C3
:100540000F050A2D08DA05F13000C2B23019C1B228
:100550004846FFF7ABFF07E005F13700C2B230199C
:10056000C1B24846FFF7A2FF601CC4B2BC42DFDB49
:10057000BDE8F08710B50446FFF7F8FE7820FFF7D6
:10058000CBFE0020FFF7C8FE2046FFF7C5FEFFF7B1
:1005900007FF10BD10B50446FFF7E8FE7820FFF70F
:1005A000BBFE4020FFF7B8FE2046FFF7B5FEFFF781
:1005B000F7FE10BD29B1064A92690243044B9A61C5
:1005C00004E0034A92698243014B9A61704700003C
:1005D0000010024008B501210420FFF7EBFF1020B6
:1005E0008DF80300B020ADF8000003208DF8020064
:1005F00069460A48FFF7BAFD04208DF80300402041
:10060000ADF8000069460548FFF7B0FD012000F095
:1006100049F8002000F03CF808BD00000008014047
:1006200010B5002000F03EF810BD10B5012000F01C
:1006300039F810BD70B50446002512E004F08000C2
:1006400000F01CF86006040E012000F021F800F014
:100650000DF808B144F00104002000F019F8681CFE
:10066000C5B2082DEADB204670BD000010B5402160
:100670000148FFF706FE10BD0008014010B5044612
:10068000224680210148FFF705FE10BD0008014009
:1006900010B50446224620210148FFF7FBFD10BD9E
:1006A0000008014010B50446224610210148FFF71A
:1006B000F1FD10BD0008014010B500F001F810BDBB
:1006C0000CB50020019000903348006840F4803061
:1006D0003149086000BF3048006800F400300090E5
:1006E0000198401C0190009818B90198B0F5A06FCE
:1006F000F1D12948006800F4003010B101200090C9
:1007000001E0002000900098012843D123480068B0
:1007100040F01000214908600846006820F00300FE
:1007200008600846006840F0020008601A48406807
:10073000194948600846406848600846406840F4E7
:10074000806048600846406820F47C104860084695
:10075000406840F4E81048600846006840F0807047
:10076000086000BF0C48006800F000700028F9D055
:100770000948406820F0030007494860084640687F
:1007800040F00200486000BF0348406800F00C00E1
:100790000828F9D10CBD00000010024000200240E2
:1007A00010B51348006840F0010011490860084680
:1007B0004068104908400E494860084600680E49E4
:1007C00008400B4908600846006820F48020086053
:1007D0000846406820F4FE0048604FF41F0088601F
:1007E000FFF76AFF4FF000600449086010BD000089
:1007F000001002400000FFF8FFFFF6FE08ED00E0E9
:1008000010B5FFF7E7FE10BD70B504460D4600F0C9
:100810004DF8FFF705FF0220FFF70CFFC4F3074078
:10082000FFF708FFC4F30720FFF704FFE0B2FFF76C
:1008300001FF2846FFF7FEFEFFF7F7FE00F025F860
:1008400070BD2DE9F04104460D461746FFF7E8FE5E
:100850000320FFF7EFFEC4F30740FFF7EBFEC4F3FE
:100860000720FFF7E7FEE0B2FFF7E4FE002605E011
:100870000020FFF7DFFEA855701C86B2BE42F7DBF2
:10088000FFF7D3FE2846BDE8F08110B5FFF7C8FE9C
:100890000520FFF7CFFE00BF0020FFF7CBFE00F0E2
:1008A00001000028F8D1FFF7C0FE10BD10B5FFF71A
:1008B000B7FE0620FFF7BEFEFFF7B7FE10BD02E051
:1008C00008C8121F08C1002AFAD1704770470020DB
:1008D00001E001C1121F002AFBD17047CCB0FFF725
:1008E00073FDFFF78DFFBB214FF48030FFF78CFFC6
:1008F0004FF4967101A8FFF71CFC40F2011201A908
:100900004FF47F40FFF79DFF9DF804200223012153
:100910000846FFF705FE9DF805200223042101206B
:10092000FFF7FEFD9DF80620022307210120FFF7B7
:10093000F7FD9DF80121022301211846FFF7F0FD84
:100940009DF80221022304211846FFF7E9FD9DF8D6
:100950000321022307211846FFF7E2FD9DF8042139
:10096000022301210320FFF7DBFD9DF8052102236F
:1009700004210320FFF7D4FD9DF80621022307215F
:100980000320FFF7CDFD00BFFEE7000000000000E0
:1009900000000000000000000000000000F800005F
:1009A0000000000000333000000000100C06100CA6
:1009B0000600000000000000000040C07840C07841
:1009C0004000043F04043F040400007088FC083029
:1009D0000000001820FF211E0000F008F000E018C1
:1009E000000000211C031E211E0000F0088870007A
:1009F00000001E2123241927211010160E000000CC
:100A000000000000000000000000000000E01804EA
:100A10000200000000071820400000020418E00057
:100A200000000040201807000000404080F0804097
:100A300040000202010F01020200000000F000006D
:100A400000000101011F0101010000000000000081
:100A5000000080B0700000000000000000000000F6
:100A6000000000010101010101010000000000007F
:100A70000000003030000000000000000000806036
:100A80001804006018060100000000E010080810BB
:100A9000E000000F102020100F00001010F80000E0
:100AA00000000020203F2020000000700808088877
:100AB0007000003028242221300000300888884847
:100AC00030000018202020110E000000C02010F877
:100AD000000000070424243F240000F80888880848
:100AE00008000019212020110E0000E0108888184D
:100AF0000000000F112020110E0000380808C8382F
:100B000008000000003F000000000070880808880E
:100B10007000001C222121221C0000E01008081097
:100B2000E0000000312222110F00000000C0C000D0
:100B300000000000003030000000000000800000D5
:100B400000000000806000000000000080402010D5
:100B500008000001020408102000404040404040CE
:100B60004000040404040404040000081020408031
:100B70000000002010080402010000704808080866
:100B8000F0000000003036010000C030C828E81036
:100B9000E0000718272423140B000000C038E000F1
:100BA0000000203C23020227382008F8888888703B
:100BB0000000203F202020110E00C0300808080847
:100BC0003800071820202010080008F8080808102E
:100BD000E000203F202020100F0008F88888E80857
:100BE0001000203F20202320180008F88888E808FB
:100BF0001000203F200003000000C0300808083823
:100C0000000007182020221E020008F80800000833
:100C1000F808203F210101213F20000808F80808BA
:100C200000000020203F2020000000000808F808F5
:100C30000800C08080807F00000008F888C0281865
:100C40000800203F20012638200008F80800000096
:100C50000000203F20202020300008F8F800F8F89D
:100C60000800203F003F003F200008F830C0000887
:100C7000F808203F200007183F00E010080808107F
:100C8000E0000F10202020100F0008F808080808C6
:100C9000F000203F210101010000E01008080810C9
:100CA000E0000F18242438504F0008F888888888FE
:100CB0007000203F2000030C3020007088080808D6
:100CC00038000038202121221C00180808F80808E4
:100CD00018000000203F2000000008F8080000086D
:100CE000F808001F202020201F000878880000C876
:100CF0003808000007380E010000F80800F8000866
:100D0000F800033C0700073C03000818688080686F
:100D1000180820302C03032C30200838C800C838AD
:100D200008000000203F2000000010080808C83814
:100D300008002038262120201800000000FE0202B2
:100D400002000000007F40404000000C30C0000066
:100D50000000000000010638C00000020202FE0090
:100D60000000004040407F0000000000040202023A
:100D7000040000000000000000000000000000006F
:100D8000000080808080808080800002020400005B
:100D90000000000000000000000000008080808053
:100DA00000000019242222223F2008F80080800041
:100DB0000000003F112020110E0000000080808004
:100DC0000000000E1120202011000000008080880B
:100DD000F800000E112020103F200000808080804D
:100DE0000000001F222222221300008080F0888849
:100DF00088180020203F2020000000008080808094
:100E00008000006B94949493600008F800808080C8
:100E10000000203F210000203F2000809898000023
:100E200000000020203F2020000000000080989853
:100E3000000000C08080807F000008F800008080F3
:100E40008000203F24022D302000000808F8000018
:100E500000000020203F20200000808080808080D3
:100E60008000203F20003F20003F80800080808065
:100E70000000203F210000203F2000008080808073
:100E80000000001F202020201F00808000808000A4
:100E9000000080FFA12020110E0000000080808053
:100EA0008000000E112020A0FF80808080008080C4
:100EB000800020203F2120000100000080808080F1
:100EC00080000033242424241900008080E08080E6
:100ED00000000000001F2020000080800000008033
:100EE0008000001F202020103F2080808000008094
:100EF000808000010E3008060100808000800080A4
:100F000080800F300C030C300F0000808000808048
:100F100080000020312E0E31200080808000008073
:100F2000808080818E701806010000808080808023
:100F300080000021302C2221300000000000807C45
:100F4000020200000000003F404000000000FF00DF
:100F5000000000000000FF0000000002027C800092
:100F600000000040403F00000000000601010202B6
:100F70000404000000000000000000008C0F0008C6
:0C0F80000000002000040000CE08000863
:04000005080000ED02
:00000001FF
